S011000050726F6A6563745F332E73726563AA
S11300000C942A000C943F000C943F000C943F0085
S11300100C943F000C943F000C943F000C943F0060
S11300200C943F000C943F000C943F000C943F0050
S11300300C943F000C943F000C943F000C943F0040
S11300400C943F000C943F000C943F000C943F0030
S11300500C943F0011241FBECFE5D8E0DEBFCDBF16
S113006011E0A0E6B0E0E2E5F4E002C005900D92F4
S1130070AC3DB107D9F70E947E010C9427020C9481
S11300800000662311F0C09A01C0C098C19882BBD9
S11300908FEF81BBC29A000000000000C29808954F
S11300A0C098C19A11BA90B3C29A0000000000002F
S11300B011BA90B3C29899239CF30E944100089509
S11300C09C0182E083BF86EF08C082BF98B791602D
S11300D098BFA89508B600FEFDCF21503109A8F7B6
S11300E013BE0895EF92FF920F931F93CF93DF9364
S11300F0BB9A6115710581F08C017B01C0E0D0E0F1
S1130100C39AC8010E946000C398C8010E9460009D
S11301102196CE15DF05A1F7DF91CF911F910F91A5
S1130120FF90EF900895EF92FF920F931F93CF9358
S1130130DF9316161706ACF47B01C82FD92F00E005
S113014010E06A817B81888199810E94720088E82D
S113015093E10E9460000F5F1F4F24960E151F0548
S113016081F7DF91CF911F910F91FF90EF90089548
S1130170B89AB99ABA9A80E190E00E94600060E06F
S113018080E30E94410085E090E00E94600060E00E
S113019080E30E94410081E090E00E94600060E002
S11301A08CE30E94500060E08CE00E94500060E00C
S11301B086E00E94500060E081E00E9450000895B3
S11301C060E081E00E9450000895CF93C62F98E22A
S11301D0899FC00D112460E082E00E945000CC236E
S11301E031F060E084E10E945000C150D1F7CF911A
S11301F00895CF93DF93EC012196FC01808188233D
S113020031F061E00E94500089918111FACFDF91B1
S1130210CF910895CF93DF93CDB7DEB760970FB634
S1130220F894DEBF0FBECDBF90E1E4E7F1E0DE015C
S1130230119601900D929A95E1F7E1E0F0E0EC0F50
S1130240FD1FE80FF11D808160960FB6F894DEBFA4
S11302500FBECDBFDF91CF9108959FE094BB9FEF78
S113026095BB95B321E030E002C0220F331F8A957D
S1130270E2F72095292325BB8FEC97E00197F1F74E
S113028000C0000083B390E06C5F7F4F02C095957F
S113029087956A95E2F721E0822781700895CF92CD
S11302A0DF92EF92FF920F931F93CF93DF9300E0BF
S11302B010E0C12CD12C14C0BE01C8010E942D0134
S11302C0882329F08E2D880F880F8C0F0EC021965D
S11302D0C430D10589F70F5F1F4F0430110521F099
S11302E0E02ECC2DDD2DE8CF8FEFDF91CF911F9144
S11302F00F91FF90EF90DF90CF900895CF93DF930D
S1130300CDB7DEB7C659D1090FB6F894DEBF0FBE1C
S1130310CDBF0E94B80001E11CE00F2EFFE0FF2ECC
S1130320F02D60E080E00E94E500E4E8F1E0DE0109
S1130330D396802F01900D928A95E1F7CE01C39652
S11303400E94F90060E081E00E94E500E5E9F1E047
S1130350DE01AB59BF4F812F01900D928A95E1F7D1
S1130360CE018B599F4F0E94F9000E944F010E94B9
S11303700A012FEF34E39CE0215030409040E1F734
S113038000C00000813359F50E94E00060E080E085
S11303900E94E500E1EAF1E0DE0111968F2D019063
S11303A00D928A95E1F7CE0101960E94F900E0EBE7
S11303B0F1E0DE011196812F01900D928A95E1F70B
S11303C060E081E00E94E500CE0101960E94F90000
S11303D069E170E080E690E00E9493002CC08433D1
S11303E051F50E94E00060E080E00E94E500ECEB43
S11303F0F1E0DE0111968F2D01900D928A95E1F7BF
S1130400CE0101960E94F900EBECF1E0DE011196B9
S1130410802F01900D928A95E1F760E081E00E94BF
S1130420E500CE0101960E94F9006CE270E084ECD4
S113043090E00E9493002FEF34E38CE02150304091
S11304408040E1F700C000000E94E0006ACFF89409
S1050450FFCFD8
S1130452400090014000900172009001400020038E
S11304625F009001650090015500900155009001D4
S11304724C0020035500900172009001400090014D
S113048255009001550090015500900165009001BE
S113049240009001480090014C0020035F0090014D
S11304A25F0090016500900140009001720090018C
S11304B2400090015F00C8005F00C8004000C8000F
S11304C24000C8007200C8007200C80040009001D9
S11304D24800C8004800C8004C00C8004C00C800CE
S11304E25500C8005500C8005F0090014000C800D4
S11304F24000C8004800C8004800C8004C00C800BA
S11305024C00C8005500F4014000C8004000C80077
S11305124800C8004800C8004C00C8004C00C8008D
S11305225500F4015F00C8005F00C8004000C80025
S11305324000C8007200C8007200C8004000F40104
S11305424800C8004800C8004C00C8004C00C8005D
S11305525500C8005500C8005F00F4010000000007
S113056200000000313233413435364237383943E2
S11305722A3023445069636B202331206F72202375
S11305823420746F005069636B204120536F6E678F
S113059200506C6179696E6720536F6E6720310079
S11305A252616E646F6D20536F6E6700506C617997
S11305B2696E6720536F6E672032005477696E6BE1
S10F05C26C65204C6974746C65202A0080
S9030000FC
