:100000000C942A000C943F000C943F000C943F0089
:100010000C943F000C943F000C943F000C943F0064
:100020000C943F000C943F000C943F000C943F0054
:100030000C943F000C943F000C943F000C943F0044
:100040000C943F000C943F000C943F000C943F0034
:100050000C943F0011241FBECFE5D8E0DEBFCDBF1A
:1000600010E0A0E6B0E0E4EFF1E002C005900D92F0
:10007000A037B107D9F70E94CF000C94F8000C9478
:100080000000CF93DF93CDB7DEB760970FB6F8943B
:10009000DEBF0FBECDBF90E08F3091058CF420E124
:1000A000E0E6F0E0DE01119601900D922A95E1F76D
:1000B000E1E0F0E0EC0FFD1FE80FF91F808101C0C7
:1000C0008FEF60960FB6F894DEBF0FBECDBFDF9105
:1000D000CF9108959C0183E083BF83E808C082BF6D
:1000E00098B7916098BFA89508B600FEFDCF215043
:1000F0003109A8F713BE0895CF93DF93EB019FE07A
:1001000094BB9FEF95BB95B321E030E002C0220F76
:10011000331F8A95E2F72095292325BB81E090E0E3
:100120000E946A0083B390E0249602C0959587955B
:10013000CA95E2F721E082278170DF91CF9108957F
:10014000CF92DF92EF92FF920F931F93CF93DF93A3
:1001500000E010E0C12CD12C14C0BE01C8010E94E7
:100160007C00882329F08E2D880F880F8C0F0EC0FD
:100170002196C430D10589F70F5F1F4F0430110558
:1001800021F0E02ECC2DDD2DE8CF8FEFDF91CF9148
:100190001F910F91FF90EF90DF90CF90089581E035
:1001A0008ABB1BBAC1E00E94A0000E9441008134BA
:1001B00049F4CBBB8FEC97E00197F1F700C000004A
:1001C0001BBAF1CF823449F4CBBB87EB9BE001979C
:1001D000F1F700C000001BBAE6CF833421F7CBBB98
:1001E0008FE99FE00197F1F700C000001BBADBCF59
:0401F000F894FFCFB1
:1001F4003132334134353642373839432A30234497
:00000001FF
